:100000000C9434000C9449000C9449000C94490061
:100010000C9449000C9449000C9449000C9449003C
:100020000C9449000C9449000C9449000C9449002C
:100030000C9449000C9449000C9449000C9449001C
:100040000C9449000C9449000C945D000C944900F8
:100050000C9449000C9449000C9449000C944900FC
:100060000C9449000C94490011241FBECFEFD8E036
:10007000DEBFCDBF11E0A0E0B1E0EEE5F1E002C0EF
:1000800005900D92A230B107D9F70E948C000C9414
:10009000AD000C940000813031F058F0823031F026
:1000A00083E090E0089581E090E0089582E090E0A0
:1000B000089580E090E0089508951F920F920FB682
:1000C0000F9211242F933F934F935F936F937F93DE
:1000D0008F939F93AF93BF93EF93FF938091C6004D
:1000E0000E944B009093010180930001E0ECF0E04E
:1000F000808180688083FF91EF91BF91AF919F9144
:100100008F917F916F915F914F913F912F910F90C0
:100110000FBE0F901F90189578941092C50087E637
:100120008093C400A1ECB0E088ED8C93E2ECF0E0A9
:1001300080818F77808380818F7B80838081877FA0
:1001400080838C918B7F8C9380818460808380817D
:0E0150008260808380E090E00895F894FFCFF5
:02015E0003009C
:00000001FF
